S015000044726976657273466F723332382E737265636C
S11300000C9435000C945D000C945D000C945D0020
S11300100C945D000C945D000C945D000C945D00E8
S11300200C945D000C945D000C945D000C945D00D8
S11300300C945D000C945D000C945D000C945D00C8
S11300400C949F020C945D000C945D000C945D0074
S11300500C945D000C945D000C945D000C945D00A8
S11300600C945D000C945D004A0311241FBECFEF75
S1130070D8E0DEBFCDBF11E0A0E0B1E0ECE6F8E0EF
S113008002C005900D92A431B107D9F721E0A4E193
S1130090B1E001C01D92A432B207E1F710E0C5E35C
S11300A0D0E004C02197FE010E942E04C433D1077E
S11300B0C9F70E9448030C9434040C940000EF9296
S11300C0FF920F931F93CF93DF938C01F62ED42FBF
S11300D0E12C83E08E1588F1C0E0C43080F46C2FED
S11300E06F0D24E641E0C8010E9412026C2F6D0FCF
S11300F024E641E0C8010E941202CF5FEECF24E65D
S113010040E06E2D6F0DC8010E9412028AE090E05B
S11301100E948F03C0E0C43070F444E66C2F6D0F6E
S1130120C8010E944802811104C06E2D7C2F81E019
S113013007C0CF5FF0CFE394CCCF60E070E080E005
S1130140DF91CF911F910F91FF90EF900895DF926F
S1130150EF92FF920F931F93CF93DF938C01D42FD1
S1130160D52EC62F7901C1110DC044E060E0C8014D
S11301700E945F00D62FD72EC82F82E390E00E9402
S11301808F03F1CFED2FF0E0EE0FFF1FEE0FFF1FF7
S1130190E050FF4FED0DF11D8081F7018083CC23EA
S11301A059F044E060E0C8010E945F00C82F8AE073
S11301B090E00E948F03F3CFDF91CF911F910F91B5
S11301C0FF90EF90DF900895DC011C9290E0943052
S11301D030F4FD01E90FF11D11829F5FF8CF0895FE
S11301E0CF93DF93EB010E94E40040EDBE0184E66F
S11301F00E945103DF91CF910895CF93DF93DC01E7
S1130200EA0190E0943088F4292F30E0FD01E20FF8
S1130210F31F5181FB01E20FF31F2081521719F0E4
S113022082E0888304C09F5FEDCF81E08883DF9103
S1130230CF910895CF93DF93EB0148EE84E60E94BB
S1130240510322E641E064E0CE010E94120280E103
S113025097E20E948F0322E640E064E0CE010E9410
S11302601202DF91CF910895CF93DF93EB0122E641
S113027041E060E0CE010E94120280E197E20E9418
S11302808F0322E640E060E0CE010E941202DF917B
S1130290CF910895FC019081DF01A90FB11D119642
S11302A06C939F5F90830895EF92FF920F931F9337
S11302B0CF93DF931F92CDB7DEB78983FA0179011B
S11302C08330F1F0843009F1811125C0AE014F5F14
S11302D05F4FBF01C9010E94FD008981823029F46A
S11302E0B801C7010E94340106C0813021F4B8016D
S11302F0C7010E941A01B801C7010E94F0000BC097
S1130300B801C9010E94F00006C0FB016081A80188
S1130310C9010E944A010F90DF91CF911F910F9163
S1130320FF90EF900895AF92BF92CF92DF92EF9239
S1130330FF920F931F93CF93DF937C01EB016A012C
S113034059018881811103C085E0F7018083888188
S1130350833231F4F6018081833010F0F70110828A
S113036088818A3219F483E0F7018083888180537D
S11303708A3060F4F6018081843040F448EEB8019C
S11303808AEF0E94510384E0F70180839601A5015E
S1130390BE01F70180810E945401DF91CF911F912A
S11303A00F91FF90EF90DF90CF90BF90AF900895A2
S11303B06830B8F54230A8F5243411F0243671F4CD
S11303C0411105C08AB10E94F9038AB908954130E8
S11303D041F58AB10E9403048AB90895233411F0C7
S11303E0233671F4411105C087B10E94F90387B91E
S11303F008954130B1F487B10E94030487B9089588
S1130400223411F0223669F4411105C084B10E94EE
S1130410F90384B90895413021F484B10E9403049E
S113042084B90895683098F5243411F0243671F4B1
S1130430413029F48BB10E9403048BB90895411112
S113044026C08BB10E94F9038BB90895223411F0B0
S1130450223671F4413029F485B10E94030485B930
S11304600895411114C085B10E94F90385B9089516
S1130470233469F4413029F488B10E94030488B913
S11304800895411104C088B10E94F90388B9089500
S1130490683010F581E090E002C0880F991F6A95DA
S11304A0E2F7443411F0443629F499B18923B1F0C8
S11304B081E00895423411F0423629F493B189233E
S11304C079F081E00895433411F0433659F496B13C
S11304D0892351F081E0089580E0089580E0089533
S11304E080E0089580E0089580E008956230B8F4D3
S11304F04230A8F4223098F4EAE7F0E08081682BD7
S11305006083808150E0440F551F482B40838081D5
S113051030E0220F331F220F331F282B208308952E
S113052021E041E061E00E947602EAE7F0E08081A8
S1130530806880830E94EB030E94B10308951F9298
S11305400F920FB60F9211248F939F93AF93BF9383
S11305508091150190911601A0911701B091180195
S11305600196A11DB11D8093150190931601A093CE
S11305701701B0931801BF91AF919F918F910F9084
S11305800FBE0F901F901895019739F46F3F7F4F5E
S113059021F483E291E00E94900208958EE191E0BB
S11305A00E94E40010921C0122E641E064E083E230
S11305B091E00E94D80122E641E060E083E291E00C
S11305C00E94D80122E641E063E083E291E00E94C8
S11305D0D80122E640E063E083E291E00E94120247
S11305E024E641E060E083E291E00E94D80124E641
S11305F041E061E083E291E00E94D80124E641E019
S113060062E083E291E00E94D80124E641E063E0E5
S113061083E291E00E94D80124E640E064E083E2B2
S113062091E00E94D80124E640E065E083E291E095
S11306300E94D80124E640E066E083E291E00E9453
S1130640D80124E640E067E083E291E00E94D8010B
S113065008950E94CE0240911A0150911B016091AD
S11306601C0129E131E083E291E00E94A70003E24A
S113067011E020E131E04EE151E069E171E08DE10A
S113068091E00E94930182E390E00E948F03E3CF04
S11306900E9429036FEF7FEF81E090E00E94C40283
S11306A008950F931F93CF93DF93C0EBD0E090E4B2
S11306B0988301EB10E09AE0F80190838093B300F3
S11306C0842F90E00E948F0388818F738883F801C0
S11306D0108285B1877F85B9DF91CF911F910F91EA
S11306E00895F8948091150190911601A091170135
S11306F0B09118017894BC01CD01052E5AE0660F23
S1130700771F881F991F5A95D1F7502D28EE33E093
S113071040E050E00E940C04CA01B9010895CF9250
S1130720DF92EF92FF927C010E9471039B01AC0166
S11307302E0D3F1D411D511D69017A016C157D056A
S11307408E059F0518F40E947103F8CFFF90EF9077
S1130750DF90CF900895E1EBF0E0808183608083A7
S11307600895CF93DF93C0EBD0E0888180688883BD
S1130770888182608883888181608883E1EBF0E0EE
S11307808081877F80831092B2000E94AB0381E056
S11307908093140188818F738883DF91CF910895AA
S11307A04230C0F46230B0F48230A0F495B5987F42
S11307B095BD95B5492B45BD95B570E0660F771F7E
S11307C0692B65BD25B590E0880F991F880F991F87
S11307D0822B85BD089514BC41E061E080E00E9455
S11307E0D00316BCEEE6F0E08081816080837894CB
S11307F0089521E030E002C0220F331F6A95E2F72A
S113080020958223089521E030E002C0220F331F97
S11308106A95E2F7822B0895A1E21A2EAA1BBB1B4C
S1130820FD010DC0AA1FBB1FEE1FFF1FA217B307B8
S1130830E407F50720F0A21BB30BE40BF50B661FCE
S1130840771F881F991F1A9469F760957095809592
S113085090959B01AC01BD01CF010895EE0FFF1FE0
S10F08600590F491E02D0994F894FFCF6A
S113086C3132334134353642373839432A30234414
S107087C35323137A5
S9030000FC
