:100000000C9435000C945D000C945D000C945D0024
:100010000C945D000C945D000C945D000C945D00EC
:100020000C945D000C945D000C945D000C945D00DC
:100030000C945D000C945D000C945D000C945D00CC
:100040000C94BE020C945D000C945D000C945D0059
:100050000C945D000C945D000C945D000C945D00AC
:100060000C945D000C945D00EC0311241FBECFEFD7
:10007000D8E0DEBFCDBF11E0A0E0B1E0E4EAF8E0F7
:1000800002C005900D92A431B107D9F721E0A4E197
:10009000B1E001C01D92A332B207E1F710E0C5E361
:1000A000D0E004C02197FE010E944A04C433D10766
:1000B000C9F70E94EA030C9450040C940000EF92DC
:1000C000FF920F931F93CF93DF938C01F62ED42FC3
:1000D000E12C83E08E1590F1C0E0C43080F46C2FE9
:1000E0006F0D24E641E0C8010E9417026C2F6D0FCE
:1000F00024E641E0C8010E941702CF5FEECF24E65C
:1001000040E06E2D6F0DC8010E9417026AE070E09A
:10011000C8010E944303C0E0C43070F444E66C2F71
:100120006D0FC8010E944D02811104C06E2D7C2FFD
:1001300081E007C0CF5FF0CFE394CBCF60E070E009
:1001400080E0DF91CF911F910F91FF90EF90089584
:10015000DF92EF92FF920F931F93CF93DF938C0167
:10016000D42FD52EC62F7901C1110EC044E060E016
:10017000C8010E945F00D62FD72EC82F62E370E01F
:10018000C8010E944303F0CFED2FF0E0EE0FFF1FF8
:10019000EE0FFF1FE050FF4FED0DF11D8081F701C5
:1001A0008083CC2361F044E060E0C8010E945F00DE
:1001B000C82F6AE070E0C8010E944303F2CFDF91CC
:1001C000CF911F910F91FF90EF90DF900895DC0188
:1001D0001C9290E0943030F4FD01E90FF11D118282
:1001E0009F5FF8CF0895CF93DF93EB010E94E70064
:1001F00040EDBE0184E60E94F303DF91CF910895A4
:10020000CF93DF93DC01EA0190E0943088F4292F4A
:1002100030E0FD01E20FF31F5181FB01E20FF31FFC
:100220002081521719F082E0888304C09F5FEDCFD0
:1002300081E08883DF91CF910895CF93DF93EB0125
:1002400048EE84E60E94F30322E641E064E0CE013A
:100250000E94170260E177E2CE010E94430322E68A
:1002600040E064E0CE010E941702DF91CF91089533
:10027000CF93DF93EB0122E641E060E0CE010E94E4
:10028000170260E177E2CE010E94430322E640E0DC
:1002900060E0CE010E941702DF91CF910895FC012A
:1002A0009081DF01A90FB11D11966C939F5F908320
:1002B0000895EF92FF920F931F93CF93DF931F92B6
:1002C000CDB7DEB78983FA0179018330F1F084304C
:1002D00009F1811125C0AE014F5F5F4FBF01C90118
:1002E0000E9400018981823029F4B801C7010E946F
:1002F000380106C0813021F4B801C7010E941D01F8
:10030000B801C7010E94F3000BC0B801C9010E94E7
:10031000F30006C0FB016081A801C9010E944F01E2
:100320000F90DF91CF911F910F91FF90EF90089563
:10033000AF92BF92CF92DF92EF92FF920F931F93F3
:10034000CF93DF937C01EB016A0159018881811110
:1003500003C085E0F70180838881833231F4F601A0
:100360008081833010F0F701108288818A3219F47D
:1003700083E0F7018083888180538A3060F4F6013E
:100380008081843040F448EEB8018AEF0E94F30384
:1003900084E0F70180839601A501BE01F701808109
:1003A0000E945901DF91CF911F910F91FF90EF9023
:1003B000DF90CF90BF90AF9008956830B8F542308D
:1003C000A8F5243411F0243671F4411105C08AB126
:1003D0000E9415048AB90895413041F58AB10E94FE
:1003E0001F048AB90895233411F0233671F44111A2
:1003F00005C087B10E94150487B908954130B1F452
:1004000087B10E941F0487B90895223411F0223663
:1004100069F4411105C084B10E94150484B908959E
:10042000413021F484B10E941F0484B908956830DA
:1004300098F5243411F0243671F4413029F48BB14D
:100440000E941F048BB90895411126C08BB10E94F0
:1004500015048BB90895223411F0223671F441301D
:1004600029F485B10E941F0485B90895411114C073
:1004700085B10E94150485B90895233469F441308B
:1004800029F488B10E941F0488B90895411104C05D
:1004900088B10E94150488B90895683010F581E08C
:1004A00090E002C0880F991F6A95E2F7443411F07A
:1004B000443629F499B18923B1F081E0089542349A
:1004C00011F0423629F493B1892379F081E008953F
:1004D000433411F0433659F496B1892351F081E049
:1004E000089580E0089580E0089580E0089580E018
:1004F000089580E008956230B8F44230A8F42230C4
:1005000098F4EAE7F0E08081682B6083808150E016
:10051000440F551F482B4083808130E0220F331F4A
:10052000220F331F282B208308952230C0F442303D
:10053000B0F46230A0F485B5887F85BD85B5282BE1
:1005400025BD85B550E0440F551F482B45BD85B5E9
:1005500070E0660F771F660F771F682B65BD0895E3
:1005600014BC21E041E060E00E94950216BCEEE67A
:10057000F0E0808181608083789408951F920F92CB
:100580000FB60F9211248F939F93AF93BF938091D7
:10059000140190911501A0911601B09117010196D7
:1005A000A11DB11D8093140190931501A093160114
:1005B000B0931701BF91AF919F918F910F900FBE94
:1005C0000F901F901895F894809114019091150147
:1005D000A0911601B09117017894BC01CD01052EB0
:1005E0005AE0660F771F881F991F5A95D1F7502D33
:1005F00028EE33E040E050E00E942804CA01B9012F
:100600000895E1EBF0E080818360808308950F938B
:100610001F93CF93DF938C01C0EBD0E0888180687B
:100620008883888182608883888181608883E1EB08
:10063000F0E08081877F80831092B200C8010E9421
:10064000010381E0F801808388818F738883DF91C3
:10065000CF911F910F910895CF93DF93EC0121E08B
:1006600041E061E00E947B02EAE7F0E0808180687F
:1006700080831882CE010E94B002CE010E9407033F
:10068000DF91CF910895CF92DF92EF92FF92CF93B7
:10069000DF93EC017B010E94E3029B01AC012E0D74
:1006A0003F1D411D511D69017A016C157D058E05A7
:1006B0009F0520F4CE010E94E302F7CFDF91CF9196
:1006C000FF90EF90DF90CF900895019739F46F3F3E
:1006D0007F4F21F482E291E00E942C0308958DE186
:1006E00091E00E94E70010921B0122E641E064E0E5
:1006F00082E291E00E94DD0122E641E060E082E2D8
:1007000091E00E94DD0122E641E063E082E291E0B7
:100710000E94DD0122E640E063E082E291E00E9477
:10072000170224E641E060E082E291E00E94DD01F0
:1007300024E641E061E082E291E00E94DD0124E6EE
:1007400041E062E082E291E00E94DD0124E641E0C6
:1007500063E082E291E00E94DD0124E640E064E093
:1007600082E291E00E94DD0124E640E065E082E261
:1007700091E00E94DD0124E640E066E082E291E043
:100780000E94DD0124E640E067E082E291E00E9401
:10079000DD0108950E946F034091190150911A01E3
:1007A00060911B0128E131E082E291E00E94A80003
:1007B00002E211E020E131E04DE151E068E171E059
:1007C0008CE191E00E94980162E370E0C8010E9410
:1007D0004303E2CF0E94CA036FEF7FEF81E090E016
:1007E0000E94650308950F931F93CF93DF93282FE3
:1007F000CB01C0EBD0E030E4388301EB10E03AE00D
:10080000F80130832093B300642F70E00E9443030B
:1008100088818F738883F801108285B1877F85B9BD
:10082000DF91CF911F910F91089521E030E002C038
:10083000220F331F6A95E2F720958223089521E065
:1008400030E002C0220F331F6A95E2F7822B089531
:10085000A1E21A2EAA1BBB1BFD010DC0AA1FBB1FC4
:10086000EE1FFF1FA217B307E407F50720F0A21B36
:10087000B30BE40BF50B661F771F881F991F1A94A3
:1008800069F760957095809590959B01AC01BD01CD
:10089000CF010895EE0FFF1F0590F491E02D09940C
:0408A000F894FFCFFA
:1008A4003132334134353642373839432A302344E0
:0408B4003532313771
:00000001FF
